:100000000C942A000C9434000C9434000C943400AA
:100010000C9434000C9434000C9434000C94340090
:100020000C9434000C9434000C9434000C94340080
:100030000C9434000C9434000C9434000C94340070
:100040000C9434000C9434000C9434000C94340060
:100050000C94340011241FBECFE5D4E0DEBFCDBF29
:100060000E9436000C9495000C940000DF93CF930F
:10007000CDB7DEB7A7E3B0E0E7E3F0E080818E7FA5
:100080008C93A7E3B0E0E7E3F0E080818D7F8C9371
:10009000A4E3B0E0E4E3F0E0808181608C93A4E32A
:1000A000B0E0E4E3F0E0808182608C93A5E3B0E00F
:1000B000E5E3F0E080818E7F8C93A5E3B0E0E5E39B
:1000C000F0E080818D7F8C93E6E3F0E08081882FE3
:1000D00090E081709070882341F0A5E3B0E0E5E303
:1000E000F0E0808181608C9307C0A5E3B0E0E5E398
:1000F000F0E080818E7F8C93E6E3F0E08081882FB2
:1001000090E082709070009741F0A5E3B0E0E5E3E5
:10011000F0E0808182608C93D7CFA5E3B0E0E5E387
:0E012000F0E080818D7F8C93CFCFF894FFCFDD
:00000001FF
